{
  "contractName": "Flashloan",
  "abi": [
    {
      "inputs": [],
      "payable": true,
      "stateMutability": "payable",
      "type": "constructor"
    },
    {
      "constant": true,
      "inputs": [],
      "name": "DAI",
      "outputs": [
        {
          "internalType": "address",
          "name": "",
          "type": "address"
        }
      ],
      "payable": false,
      "stateMutability": "view",
      "type": "function"
    },
    {
      "constant": true,
      "inputs": [],
      "name": "SAI",
      "outputs": [
        {
          "internalType": "address",
          "name": "",
          "type": "address"
        }
      ],
      "payable": false,
      "stateMutability": "view",
      "type": "function"
    },
    {
      "constant": true,
      "inputs": [],
      "name": "USDC",
      "outputs": [
        {
          "internalType": "address",
          "name": "",
          "type": "address"
        }
      ],
      "payable": false,
      "stateMutability": "view",
      "type": "function"
    },
    {
      "constant": true,
      "inputs": [],
      "name": "WETH",
      "outputs": [
        {
          "internalType": "address",
          "name": "",
          "type": "address"
        }
      ],
      "payable": false,
      "stateMutability": "view",
      "type": "function"
    },
    {
      "constant": true,
      "inputs": [
        {
          "internalType": "address",
          "name": "",
          "type": "address"
        }
      ],
      "name": "currencies",
      "outputs": [
        {
          "internalType": "uint256",
          "name": "",
          "type": "uint256"
        }
      ],
      "payable": false,
      "stateMutability": "view",
      "type": "function"
    },
    {
      "constant": true,
      "inputs": [],
      "name": "loan",
      "outputs": [
        {
          "internalType": "uint256",
          "name": "",
          "type": "uint256"
        }
      ],
      "payable": false,
      "stateMutability": "view",
      "type": "function"
    },
    {
      "constant": true,
      "inputs": [
        {
          "internalType": "address",
          "name": "token",
          "type": "address"
        }
      ],
      "name": "tokenToMarketId",
      "outputs": [
        {
          "internalType": "uint256",
          "name": "",
          "type": "uint256"
        }
      ],
      "payable": false,
      "stateMutability": "view",
      "type": "function"
    },
    {
      "constant": false,
      "inputs": [
        {
          "internalType": "address",
          "name": "flashToken",
          "type": "address"
        },
        {
          "internalType": "uint256",
          "name": "flashAmount",
          "type": "uint256"
        }
      ],
      "name": "getFlashloan",
      "outputs": [],
      "payable": false,
      "stateMutability": "nonpayable",
      "type": "function"
    },
    {
      "constant": false,
      "inputs": [
        {
          "internalType": "address",
          "name": "",
          "type": "address"
        },
        {
          "components": [
            {
              "internalType": "address",
              "name": "owner",
              "type": "address"
            },
            {
              "internalType": "uint256",
              "name": "number",
              "type": "uint256"
            }
          ],
          "internalType": "struct Structs.Info",
          "name": "",
          "type": "tuple"
        },
        {
          "internalType": "bytes",
          "name": "data",
          "type": "bytes"
        }
      ],
      "name": "callFunction",
      "outputs": [],
      "payable": false,
      "stateMutability": "nonpayable",
      "type": "function"
    }
  ],
  "bytecode": "0x6080604052731e0447b19bb6ecfdae1e4ae1694b0c3659614e4e6000806101000a81548173ffffffffffffffffffffffffffffffffffffffff021916908373ffffffffffffffffffffffffffffffffffffffff16021790555073c02aaa39b223fe8d0a0e5c4f27ead9083c756cc2600160006101000a81548173ffffffffffffffffffffffffffffffffffffffff021916908373ffffffffffffffffffffffffffffffffffffffff1602179055507389d24a6b4ccb1b6faa2625fe562bdd9a23260359600260006101000a81548173ffffffffffffffffffffffffffffffffffffffff021916908373ffffffffffffffffffffffffffffffffffffffff16021790555073a0b86991c6218b36c1d19d4a2e9eb0ce3606eb48600360006101000a81548173ffffffffffffffffffffffffffffffffffffffff021916908373ffffffffffffffffffffffffffffffffffffffff160217905550736b175474e89094c44da98b954eedeac495271d0f600460006101000a81548173ffffffffffffffffffffffffffffffffffffffff021916908373ffffffffffffffffffffffffffffffffffffffff160217905550600160056000600160009054906101000a900473ffffffffffffffffffffffffffffffffffffffff1673ffffffffffffffffffffffffffffffffffffffff1673ffffffffffffffffffffffffffffffffffffffff16815260200190815260200160002081905550600260056000600260009054906101000a900473ffffffffffffffffffffffffffffffffffffffff1673ffffffffffffffffffffffffffffffffffffffff1673ffffffffffffffffffffffffffffffffffffffff16815260200190815260200160002081905550600360056000600360009054906101000a900473ffffffffffffffffffffffffffffffffffffffff1673ffffffffffffffffffffffffffffffffffffffff1673ffffffffffffffffffffffffffffffffffffffff16815260200190815260200160002081905550600460056000600460009054906101000a900473ffffffffffffffffffffffffffffffffffffffff1673ffffffffffffffffffffffffffffffffffffffff1673ffffffffffffffffffffffffffffffffffffffff168152602001908152602001600020819055506000600160009054906101000a900473ffffffffffffffffffffffffffffffffffffffff1673ffffffffffffffffffffffffffffffffffffffff1634604051620003929062000482565b60006040518083038185875af1925050503d8060008114620003d1576040519150601f19603f3d011682016040523d82523d6000602084013e620003d6565b606091505b50509050806200041d576040517f08c379a0000000000000000000000000000000000000000000000000000000008152600401620004149062000499565b60405180910390fd5b50620004d7565b600062000433601083620004c6565b91507f6661696c20746f206765742077657468000000000000000000000000000000006000830152602082019050919050565b600062000475600083620004bb565b9150600082019050919050565b60006200048f8262000466565b9150819050919050565b60006020820190508181036000830152620004b48162000424565b9050919050565b600081905092915050565b600082825260208201905092915050565b61150180620004e76000396000f3fe608060405234801561001057600080fd5b50600436106100935760003560e01c8063ac542fb811610066578063ac542fb814610120578063ad5c46481461013c578063b82687881461015a578063d285b7b41461018a578063e0bab4c4146101a857610093565b80634b3fb7f8146100985780636036cba3146100b657806389a30271146100e65780638b41871314610104575b600080fd5b6100a06101c6565b6040516100ad9190611162565b60405180910390f35b6100d060048036036100cb9190810190610c23565b6101ec565b6040516100dd9190611274565b60405180910390f35b6100ee610204565b6040516100fb9190611162565b60405180910390f35b61011e60048036036101199190810190610c9b565b61022a565b005b61013a60048036036101359190810190610d07565b6103b5565b005b61014461047b565b6040516101519190611162565b60405180910390f35b610174600480360361016f9190810190610c23565b6104a1565b6040516101819190611274565b60405180910390f35b610192610536565b60405161019f9190611274565b60405180910390f35b6101b061053c565b6040516101bd9190611162565b60405180910390f35b600260009054906101000a900473ffffffffffffffffffffffffffffffffffffffff1681565b60056020528060005260406000206000915090505481565b600360009054906101000a900473ffffffffffffffffffffffffffffffffffffffff1681565b6000809054906101000a900473ffffffffffffffffffffffffffffffffffffffff1673ffffffffffffffffffffffffffffffffffffffff163373ffffffffffffffffffffffffffffffffffffffff16146102b9576040517f08c379a00000000000000000000000000000000000000000000000000000000081526004016102b090611214565b60405180910390fd5b600080600084846102cd9190810190610c4c565b92509250925060008373ffffffffffffffffffffffffffffffffffffffff166370a08231306040518263ffffffff1660e01b815260040161030e9190611162565b60206040518083038186803b15801561032657600080fd5b505afa15801561033a573d6000803e3d6000fd5b505050506040513d601f19601f8201168201806040525061035e9190810190610d6c565b905082828203146103a4576040517f08c379a000000000000000000000000000000000000000000000000000000000815260040161039b90611234565b60405180910390fd5b806006819055505050505050505050565b60008273ffffffffffffffffffffffffffffffffffffffff166370a08231306040518263ffffffff1660e01b81526004016103f09190611162565b60206040518083038186803b15801561040857600080fd5b505afa15801561041c573d6000803e3d6000fd5b505050506040513d601f19601f820116820180604052506104409190810190610d6c565b90506060838383604051602001610459939291906111a6565b6040516020818303038152906040529050610475848483610562565b50505050565b600160009054906101000a900473ffffffffffffffffffffffffffffffffffffffff1681565b600080600560008473ffffffffffffffffffffffffffffffffffffffff1673ffffffffffffffffffffffffffffffffffffffff168152602001908152602001600020549050600081141561052a576040517f08c379a000000000000000000000000000000000000000000000000000000000815260040161052190611254565b60405180910390fd5b60018103915050919050565b60065481565b600460009054906101000a900473ffffffffffffffffffffffffffffffffffffffff1681565b8273ffffffffffffffffffffffffffffffffffffffff1663095ea7b36000809054906101000a900473ffffffffffffffffffffffffffffffffffffffff16600185016040518363ffffffff1660e01b81526004016105c192919061117d565b602060405180830381600087803b1580156105db57600080fd5b505af11580156105ef573d6000803e3d6000fd5b505050506040513d601f19601f820116820180604052506106139190810190610d43565b506060600160405190808252806020026020018201604052801561065157816020015b61063e6109d1565b8152602001906001900390816106365790505b5090506060600360405190808252806020026020018201604052801561069157816020015b61067e610a01565b8152602001906001900390816106765790505b50905060405180604001604052803073ffffffffffffffffffffffffffffffffffffffff1681526020016000815250826000815181106106cd57fe5b60200260200101819052506106e0610a6d565b604051806080016040528060001515815260200160008081111561070057fe5b815260200160008081111561071157fe5b8152602001868152509050610724610aab565b60018160000190600881111561073657fe5b9081600881111561074357fe5b815250506000816020018181525050818160400181905250610764876104a1565b816060018181525050308160a0019073ffffffffffffffffffffffffffffffffffffffff16908173ffffffffffffffffffffffffffffffffffffffff168152505080836000815181106107b357fe5b60200260200101819052506107c6610aab565b6008816000019060088111156107d857fe5b908160088111156107e557fe5b815250506000816020018181525050308160a0019073ffffffffffffffffffffffffffffffffffffffff16908173ffffffffffffffffffffffffffffffffffffffff1681525050858160e00181905250808460018151811061084357fe5b6020026020010181905250610856610aab565b61085e610a6d565b604051806080016040528060011515815260200160008081111561087e57fe5b815260200160008081111561088f57fe5b815260200160018b0181525090506000826000019060088111156108af57fe5b908160088111156108bc57fe5b8152505060008260200181815250508082604001819052506108dd8a6104a1565b826060018181525050308260a0019073ffffffffffffffffffffffffffffffffffffffff16908173ffffffffffffffffffffffffffffffffffffffff1681525050818660028151811061092c57fe5b60200260200101819052506000809054906101000a900473ffffffffffffffffffffffffffffffffffffffff1673ffffffffffffffffffffffffffffffffffffffff1663a67a6a4588886040518363ffffffff1660e01b81526004016109939291906111dd565b600060405180830381600087803b1580156109ad57600080fd5b505af11580156109c1573d6000803e3d6000fd5b5050505050505050505050505050565b6040518060400160405280600073ffffffffffffffffffffffffffffffffffffffff168152602001600081525090565b60405180610100016040528060006008811115610a1a57fe5b815260200160008152602001610a2e610b17565b81526020016000815260200160008152602001600073ffffffffffffffffffffffffffffffffffffffff16815260200160008152602001606081525090565b6040518060800160405280600015158152602001600080811115610a8d57fe5b8152602001600080811115610a9e57fe5b8152602001600081525090565b60405180610100016040528060006008811115610ac457fe5b815260200160008152602001610ad8610b17565b81526020016000815260200160008152602001600073ffffffffffffffffffffffffffffffffffffffff16815260200160008152602001606081525090565b6040518060800160405280600015158152602001600080811115610b3757fe5b8152602001600080811115610b4857fe5b8152602001600081525090565b600081359050610b6481611462565b92915050565b600081359050610b7981611479565b92915050565b600081519050610b8e81611490565b92915050565b60008083601f840112610ba657600080fd5b8235905067ffffffffffffffff811115610bbf57600080fd5b602083019150836001820283011115610bd757600080fd5b9250929050565b600060408284031215610bf057600080fd5b81905092915050565b600081359050610c08816114a7565b92915050565b600081519050610c1d816114a7565b92915050565b600060208284031215610c3557600080fd5b6000610c4384828501610b55565b91505092915050565b600080600060608486031215610c6157600080fd5b6000610c6f86828701610b6a565b9350506020610c8086828701610bf9565b9250506040610c9186828701610bf9565b9150509250925092565b60008060008060808587031215610cb157600080fd5b6000610cbf87828801610b55565b9450506020610cd087828801610bde565b935050606085013567ffffffffffffffff811115610ced57600080fd5b610cf987828801610b94565b925092505092959194509250565b60008060408385031215610d1a57600080fd5b6000610d2885828601610b55565b9250506020610d3985828601610bf9565b9150509250929050565b600060208284031215610d5557600080fd5b6000610d6384828501610b7f565b91505092915050565b600060208284031215610d7e57600080fd5b6000610d8c84828501610c0e565b91505092915050565b6000610da1838361100d565b905092915050565b6000610db58383611115565b60408301905092915050565b610dca8161132e565b82525050565b610dd98161132e565b82525050565b6000610dea826112af565b610df481856112ea565b935083602082028501610e068561128f565b8060005b85811015610e425784840389528151610e238582610d95565b9450610e2e836112d0565b925060208a01995050600181019050610e0a565b50829750879550505050505092915050565b6000610e5f826112ba565b610e6981856112fb565b9350610e748361129f565b8060005b83811015610ea5578151610e8c8882610da9565b9750610e97836112dd565b925050600181019050610e78565b5085935050505092915050565b610ebb81611352565b82525050565b6000610ecc826112c5565b610ed6818561130c565b9350610ee68185602086016113f7565b610eef8161142a565b840191505092915050565b610f03816113c1565b82525050565b610f12816113d3565b82525050565b610f21816113e5565b82525050565b6000610f34602c8361131d565b91507f466c6173684c6f616e3a20636f756c642062652063616c6c656420627920447960008301527f447820706f6f6c206f6e6c7900000000000000000000000000000000000000006020830152604082019050919050565b6000610f9a601d8361131d565b91507f636f6e747261637420646964206e6f742067657420746865206c6f616e0000006000830152602082019050919050565b6000610fda601c8361131d565b91507f466c6173684c6f616e3a20556e737570706f7274656420746f6b656e000000006000830152602082019050919050565b6000610160830160008301516110266000860182610efa565b5060208301516110396020860182611144565b50604083015161104c60408601826110c0565b50606083015161105f60c0860182611144565b50608083015161107260e0860182611144565b5060a0830151611086610100860182610dc1565b5060c083015161109a610120860182611144565b5060e08301518482036101408601526110b38282610ec1565b9150508091505092915050565b6080820160008201516110d66000850182610eb2565b5060208201516110e96020850182610f09565b5060408201516110fc6040850182610f18565b50606082015161110f6060850182611144565b50505050565b60408201600082015161112b6000850182610dc1565b50602082015161113e6020850182611144565b50505050565b61114d816113b7565b82525050565b61115c816113b7565b82525050565b60006020820190506111776000830184610dd0565b92915050565b60006040820190506111926000830185610dd0565b61119f6020830184611153565b9392505050565b60006060820190506111bb6000830186610dd0565b6111c86020830185611153565b6111d56040830184611153565b949350505050565b600060408201905081810360008301526111f78185610e54565b9050818103602083015261120b8184610ddf565b90509392505050565b6000602082019050818103600083015261122d81610f27565b9050919050565b6000602082019050818103600083015261124d81610f8d565b9050919050565b6000602082019050818103600083015261126d81610fcd565b9050919050565b60006020820190506112896000830184611153565b92915050565b6000819050602082019050919050565b6000819050602082019050919050565b600081519050919050565b600081519050919050565b600081519050919050565b6000602082019050919050565b6000602082019050919050565b600082825260208201905092915050565b600082825260208201905092915050565b600082825260208201905092915050565b600082825260208201905092915050565b600061133982611397565b9050919050565b600061134b82611397565b9050919050565b60008115159050919050565b600081905061136c8261143b565b919050565b600081905061137f82611448565b919050565b600081905061139282611455565b919050565b600073ffffffffffffffffffffffffffffffffffffffff82169050919050565b6000819050919050565b60006113cc8261135e565b9050919050565b60006113de82611371565b9050919050565b60006113f082611384565b9050919050565b60005b838110156114155780820151818401526020810190506113fa565b83811115611424576000848401525b50505050565b6000601f19601f8301169050919050565b6009811061144557fe5b50565b6001811061145257fe5b50565b6001811061145f57fe5b50565b61146b8161132e565b811461147657600080fd5b50565b61148281611340565b811461148d57600080fd5b50565b61149981611352565b81146114a457600080fd5b50565b6114b0816113b7565b81146114bb57600080fd5b5056fea365627a7a72315820b110a1cfd4ff8afcd4a6987dad6d688714edf854e6b06bac18e5af642046a6476c6578706572696d656e74616cf564736f6c634300050c0040",
  "source": "pragma solidity ^0.5.0;\npragma experimental ABIEncoderV2;\n\ninterface Structs {\n    struct Val {\n        uint256 value;\n    }\n\n    enum ActionType {\n        Deposit, // supply tokens\n        Withdraw, // borrow tokens\n        Transfer, // transfer balance between accounts\n        Buy, // buy an amount of some token (externally)\n        Sell, // sell an amount of some token (externally)\n        Trade, // trade tokens against another account\n        Liquidate, // liquidate an undercollateralized or expiring account\n        Vaporize, // use excess tokens to zero-out a completely negative account\n        Call // send arbitrary data to an address\n    }\n\n    enum AssetDenomination {\n        Wei // the amount is denominated in wei\n    }\n\n    enum AssetReference {\n        Delta // the amount is given as a delta from the current value\n    }\n\n    struct AssetAmount {\n        bool sign; // true if positive\n        AssetDenomination denomination;\n        AssetReference ref;\n        uint256 value;\n    }\n\n    struct ActionArgs {\n        ActionType actionType;\n        uint256 accountId;\n        AssetAmount amount;\n        uint256 primaryMarketId;\n        uint256 secondaryMarketId;\n        address otherAddress;\n        uint256 otherAccountId;\n        bytes data;\n    }\n\n    struct Info {\n        address owner; // The address that owns the account\n        uint256 number; // A nonce that allows a single address to control many accounts\n    }\n\n    struct Wei {\n        bool sign; // true if positive\n        uint256 value;\n    }\n}\n\ncontract DyDxPool is Structs {\n    function getAccountWei(Info memory account, uint256 marketId)\n        public\n        view\n        returns (Wei memory);\n\n    function operate(Info[] memory, ActionArgs[] memory) public;\n}\n\n\n\n/**\n * @dev Interface of the ERC20 standard as defined in the EIP. Does not include\n * the optional functions; to access them see `ERC20Detailed`.\n */\ninterface IERC20 {\n    function balanceOf(address account) external view returns (uint256);\n\n    function approve(address spender, uint256 amount) external returns (bool);\n}\n\n\n\ncontract DyDxFlashLoan is Structs {\n    DyDxPool pool = DyDxPool(0x1E0447b19BB6EcFdAe1e4AE1694b0C3659614e4e);\n\n    address public WETH = 0xC02aaA39b223FE8D0A0e5C4F27eAD9083C756Cc2;\n    address public SAI = 0x89d24A6b4CcB1B6fAA2625fE562bDD9a23260359;\n    address public USDC = 0xA0b86991c6218b36c1d19D4a2e9Eb0cE3606eB48;\n    address public DAI = 0x6B175474E89094C44Da98b954EedeAC495271d0F;\n    mapping(address => uint256) public currencies;\n\n    constructor() public {\n        currencies[WETH] = 1;\n        currencies[SAI] = 2;\n        currencies[USDC] = 3;\n        currencies[DAI] = 4;\n    }\n\n    modifier onlyPool() {\n        require(\n            msg.sender == address(pool),\n            \"FlashLoan: could be called by DyDx pool only\"\n        );\n        _;\n    }\n\n    function tokenToMarketId(address token) public view returns (uint256) {\n        uint256 marketId = currencies[token];\n        require(marketId != 0, \"FlashLoan: Unsupported token\");\n        return marketId - 1;\n    }\n\n    // the DyDx will call `callFunction(address sender, Info memory accountInfo, bytes memory data) public` after during `operate` call\n    function flashloan(\n        address token,\n        uint256 amount,\n        bytes memory data\n    ) internal {\n        IERC20(token).approve(address(pool), amount + 1);\n        Info[] memory infos = new Info[](1);\n        ActionArgs[] memory args = new ActionArgs[](3);\n\n        infos[0] = Info(address(this), 0);\n\n        AssetAmount memory wamt = AssetAmount(\n            false,\n            AssetDenomination.Wei,\n            AssetReference.Delta,\n            amount\n        );\n        ActionArgs memory withdraw;\n        withdraw.actionType = ActionType.Withdraw;\n        withdraw.accountId = 0;\n        withdraw.amount = wamt;\n        withdraw.primaryMarketId = tokenToMarketId(token);\n        withdraw.otherAddress = address(this);\n\n        args[0] = withdraw;\n\n        ActionArgs memory call;\n        call.actionType = ActionType.Call;\n        call.accountId = 0;\n        call.otherAddress = address(this);\n        call.data = data;\n\n        args[1] = call;\n\n        ActionArgs memory deposit;\n        AssetAmount memory damt = AssetAmount(\n            true,\n            AssetDenomination.Wei,\n            AssetReference.Delta,\n            amount + 1\n        );\n        deposit.actionType = ActionType.Deposit;\n        deposit.accountId = 0;\n        deposit.amount = damt;\n        deposit.primaryMarketId = tokenToMarketId(token);\n        deposit.otherAddress = address(this);\n\n        args[2] = deposit;\n\n        pool.operate(infos, args);\n    }\n}\n\n\n\ncontract Flashloan is DyDxFlashLoan {\n    uint256 public loan;\n\n    constructor() public payable {\n        (bool success, ) = WETH.call.value(msg.value)(\"\");\n        require(success, \"fail to get weth\");\n    }\n\n    function getFlashloan(address flashToken, uint256 flashAmount) external {\n        uint256 balanceBefore = IERC20(flashToken).balanceOf(address(this));\n        bytes memory data = abi.encode(flashToken, flashAmount, balanceBefore);\n        flashloan(flashToken, flashAmount, data); // execution goes to `callFunction`\n    }\n\n    function callFunction(\n        address, /* sender */\n        Info calldata, /* accountInfo */\n        bytes calldata data\n    ) external onlyPool {\n        (address flashToken, uint256 flashAmount, uint256 balanceBefore) = abi\n            .decode(data, (address, uint256, uint256));\n        uint256 balanceAfter = IERC20(flashToken).balanceOf(address(this));\n        require(\n            balanceAfter - balanceBefore == flashAmount,\n            \"contract did not get the loan\"\n        );\n        loan = balanceAfter;\n\n        // Use the money here!\n    }\n}\n",
  "sourcePath": "/Users/kevinkeaveney/Projects/FlashX/src/contracts/Flashloan.sol",
  "compiler": {
    "name": "solc",
    "version": "0.5.12+commit.7709ece9.Emscripten.clang"
  },
  "schemaVersion": "3.0.19",
  "updatedAt": "2020-06-22T10:53:25.443Z",
  "networkType": "ethereum",
  "devdoc": {
    "methods": {}
  },
  "userdoc": {
    "methods": {}
  }
}